:10000000382C0020A9400000D5420100D940000052
:10001000D9400000D9400000D94000000000000095
:100020000000000000000000000000001940000077
:10003000D940000000000000D13F0000BD42010097
:10004000694000006DEC000069400000694000005C
:1000500069400000694000006940000069400000FC
:1000600069400000694000006940000069400000EC
:1000700069400000694000006940000069400000DC
:1000800069400000694000006940000069400000CC
:1000900069400000694000006940000069400000BC
:1000A00069400000694000006940000069400000AC
:1000B000694000006940000069400000694000009C
:1000C000694000006940000069400000694000008C
:0C00D00069400000694000006940000029
:0400DC00FFFFFFFF24
:1000E00053B94AB9002908BF00281CBF4FF0FF319F
:1000F0004FF0FF3000F06CB9ADF1080C6DE904CEA3
:1001000000F006F8DDF804E0DDE9022304B07047F2
:100110002DE9F047089E0D4604468E46002B40F020
:1001200082808A42174646D9B2FA82F24AB1C2F1B7
:10013000200105FA02F320FA01F1974041EA030E8B
:1001400094404FEA1748230CBEFBF8FCB9B208FBF9
:100150001CEE43EA0E430CFB01F098420AD9FB184F
:100160000CF1FF3580F01681984240F21381ACF11A
:10017000020C3B441B1AA4B2B3FBF8F008FB10338B
:1001800044EA034400FB01F1A14209D93C1900F102
:10019000FF3380F00181A14240F2FE8002383C44EE
:1001A000641A40EA0C4000211EB1D4400023C6E985
:1001B0000043BDE8F08702B9FFDEB2FA82F2002AFE
:1001C0004FD1CB1B4FEA174E1FFA87F80121B3FB23
:1001D000FEFC250C0EFB1C3345EA034508FB0CF323
:1001E000AB4207D97D190CF1FF3002D2AB4200F2CD
:1001F000E7808446ED1AA3B2B5FBFEF00EFB105566
:1002000043EA054408FB00F8A04507D93C1900F172
:10021000FF3302D2A04500F2D7801846A4EB0804B1
:1002200040EA0C40C0E78B4208D9002E00F0AF80B6
:100230000021C6E900050846BDE8F087B3FA83F15E
:1002400000294BD1AB4202D3824200F2B780841A1C
:1002500065EB030301209E46002EAAD0C6E9004E9E
:10026000A7E7C2F1200C01FA02F3974020FA0CF044
:100270004FEA174E21FA0CFC1843BCFBFEF1050CAB
:100280000EFB11CC1FFA87F845EA0C4501FB08F379
:10029000AB4204FA02F409D97D1901F1FF3C80F068
:1002A0008B80AB4240F2888002393D44EB1A85B224
:1002B000B3FBFEF00EFB103345EA034500FB08F3E9
:1002C000AB4207D97D1900F1FF3C71D2AB426FD927
:1002D00002383D44EB1A40EA014178E7C1F1200CB5
:1002E0008B4022FA0CF71F4320FA0CF405FA01F3B5
:1002F0004FEA174E25FA0CF51C43230CB5FBFEF90B
:100300001FFA87F80EFB195543EA054509FB08FA61
:10031000AA4502FA01F200FA01F308D97D1909F1A0
:10032000FF3047D2AA4545D9A9F102093D44A5EBC2
:100330000A05A4B2B5FBFEF00EFB105544EA0544D5
:1003400000FB08F8A04507D93C1900F1FF352DD274
:10035000A0452BD902383C4440EA0940A4EB0804EC
:10036000A0FB02894C45C6464D4619D316D05EB156
:10037000B3EB0E0264EB050404FA0CFCCA404CEA31
:100380000202CC40C6E900240021BDE8F0873146D6
:1003900030460EE7AC46EDE6184601E74345E6D2A7
:1003A000B8EB020E69EB07050138E0E72846D3E712
:1003B00060468FE78146BAE7614677E708464BE734
:1003C000ACF1020C3D4415E702383C4426E700BF7F
:1003D000704700BF000000002DE9F04F8FB00223EE
:1003E000AB4C0C93002800F0E88094F8CC6016F039
:1003F000010637D194F87C8094F8290094F82C20D9
:1004000027272D2307FB084800F0030017FB0237BE
:10041000FF2384F82A300DF071FD94F8DA0081078B
:1004200008F17D0804EB070921D4E05D3146C0F3F3
:10043000801005F0A3FC06220146054609F10200E2
:1004400013F06BFF0622294608F1020013F065FF46
:10045000E35D5A0622D413F00E0F2BD1636A002BF2
:1004600000F026810C2630460FB0BDE8F08FC0F3B7
:100470008000324604F1DB010DF04AFFFF2884F8CA
:100480002A0040F0EB81824849460DF07DFD80480E
:1004900041460DF079FDE35D5A06DCD5062109F1F0
:1004A000020004F025F9002800F02C82E35D13F02F
:1004B0000E0FD3D094F828300121C3F342030DA8C6
:1004C0008DF8343004F094FA00286FD0E25D99F88A
:1004D000013098F8011002F00F02022A12D0012A0E
:1004E00000F01A82C9008031002A40F00D821033DA
:1004F000DB0003F54D720A4403F59A73013803FBE0
:10050000002009E01033DB0000FB03F303F5AA73BE
:100510000138642202FB003094F820305D49E46128
:10052000002565F30003312284F820302260C4E9FD
:10053000055555A3D3E90023C4E90155A0FB0101EA
:10054000FFF7CEFDB4F8D890E06005F011FC8046CE
:10055000B9F1000F07D1E55D05F00F05A5F1010523
:10056000B5FA85F56D0994F8280065F3000010F0E0
:10057000010584F8280000F07581474DE368474A7B
:10058000049300200CAF019305920321CDE9075796
:10059000CDE90200069400904346022205F036FBA6
:1005A000394608F0B7FC002800F09881636A002BF8
:1005B0003FF458AF09F066F854E70D9394F8CC3047
:1005C000DD077FF54FAF204608F0B2FC84420CD027
:1005D000334A3449344840F2E94313F08BFB40403E
:1005E00080F311884FF0030002DF94F82830D80719
:1005F0000DAD0ED50321284B00950122002005F0FA
:1006000071FB294608F086FC002840F0BA810223DD
:100610000D930321204B00950222002005F062FB80
:10062000294608F077FC002840F08F811F4808F029
:10063000BBFC002840F07581154808F085FC844219
:100640000CD0174A1749184840F20B5313F052FBCD
:10065000404080F311884FF0030002DF636A0BB162
:1006600009F010F894F8CC3000206FF3000384F800
:10067000CC3009F0B9FB0646002800F02C8100269A
:1006800030460FB0BDE8F08F8D49FD1A070000001D
:100690008C12002000CA9A3B098F0000F5930000DD
:1006A000C0550100B05601005C520100A8120020A4
:1006B00008F09CFB8246002800F0458108F0A2FB70
:1006C0008346002800F0588109F07EFF0546002887
:1006D00000F04F814FF6FF73806FAB8505F11C036F
:1006E0000B93002800F02B8105F16C0205F16801E5
:1006F00004F00AF8B5F8642095F840C095F83DE09C
:1007000095F8DC0095F82211A54B2B6622F4EF62D8
:1007100022F0070242F4887242F00102A5F8642038
:10072000002262F3000C20F0030021F0030185F8A1
:1007300040C00EF03F0E4FF01B1C6EF07F0E85F890
:10074000DC0085F822117F209649C5F85CC04FF087
:10075000060CC5E9132285F83F206A866A636A653C
:10076000A5F8C820A5F8CC20A5F8E82085F8EA204F
:10077000C5F80021A5F80421A5F81821A5F8202125
:1007800085F82B21AA6785F83DE085F8C100A5F81A
:10079000C4C0C5F81C11C5F82CA1A5F87C2095F89B
:1007A00072E195F89AC195F87E0095F85211A5F876
:1007B000502162F3C30C62F3041E21F0070120F004
:1007C0001F00A5F87021A5F89821A5F8A42185F8A7
:1007D0009AC185F872E185F8521185F87E000AF019
:1007E00067FAA5F8D6000AF069FAD5F8A8316E497B
:1007F000A5F8D8001940C5F8A8110AF065FA95F8CF
:10080000AC1160F3020185F8AC110AF063FAC4E997
:1008100034AB0B9B636295F8AC1195F820C0ED6189
:100820000301002203F0700321F078010B4362F30F
:10083000000CC5E96E22C5E96C22C5E90522C5F8A0
:10084000C02185F8AC3185F820C00EF06FFD00287E
:100850003FF430AE08F016FF032604E630460DF0F4
:100860001FFC10E65148E268514BDFF864E1069442
:10087000A9FB0001912707FB091102F247171F602E
:1008800004924C4A09934FF6FF7C05920CAF42A3A9
:10089000D3E90023CDE907E70295CDF80CC0FFF7B7
:1008A0001FFC4346CDE9005002222846032105F0F3
:1008B00057F9394608F02EFB00287FF477AE94F8FC
:1008C000CC3043F0010384F8CC3009F08DFA0028D5
:1008D0007FF4D5AE01200DF0EFFAC4E5364905915D
:1008E0004AF2D832CDE9075700920225CDE903003C
:1008F000CDE9010006944346012203210C9505F041
:1009000085F9D6E71226AEE5062A3FF4F0AD4FF49E
:10091000DA734FF41B72F1E54FF4F2734FF47F7208
:10092000ECE5264A264927484FF4A16313F0E2F983
:10093000404080F311884FF0030002DF7CE605F1B0
:100940007000A867D0E607268DE51F4808F0F0FA8A
:1009500084423FF487AD40F20253184A1B491948BC
:1009600013F0C8F9404080F311884FF0030002DF14
:1009700078E5584608F04CFA504608F03DFA07264C
:1009800071E5114808F0D4FA84423FF46BAD40F2AF
:10099000F343E2E7AFF300808D49FD1A0700000042
:1009A00048014801FF4101000000FFF6002AE784EA
:1009B00070130020F5930000FD950000C055010064
:1009C000D05401005C5201008C120020B05601008E
:1009D000098F000000000000F8B5194E9DF818407E
:1009E00096F8485015F0010721D196F832C0DFF88B
:1009F00054E0A6F84210E40004F018040CF0670C70
:100A000044EAC01463F34205A2FB0E0144EA0C045D
:100A1000912303FB021186F8485007A3D3E9002372
:100A200086F83240FFF75CFB70643846F8BD0C274F
:100A30003846F8BDAFF300808D49FD1A070000006D
:100A400094130020002AE784F8B59DF81840104E52
:100A50000546E400807DEA8404F01804A3FB0667E1
:100A600000F06700912244EAC111014302FB0377C1
:100A7000A97505A3D3E9002330463946FFF730FBBB
:100A8000A862F8BDAFF300808D49FD1A0700000091
:100A9000002AE784000000002DE9F04190F8323090
:100AA000044600F1350190F8480003F0F903C0F363
:100AB00040008EB060F3861384F8323002230B932B
:100AC00005F05CF9B4F8426094F820304848E461DD
:100AD0000025A6FB000165F30003912202FB06112D
:100AE000C4E9055584F820303FA3D3E90023FFF77C
:100AF000F7FA636C656006460933A6F1310293424A
:100B00004FF03101A56028BF6564216034BFE36008
:100B1000E26005F02DF9676A0546002F43D0069480
:100B2000B4F842703248E268DFF8D0C00492A7FB04
:100B30000001912303FB07112E4B05934FF0000892
:100B40000BAF29A3D3E90023CDF81CC00897CDF83B
:100B50000C80FFF7C5FA104619464FF47A7200234D
:100B6000FFF7BEFA2B46029004220321CDF8008045
:100B70004046019605F04AF8394608F0CBF905469B
:100B800068B994F8483043F0010384F8483008F01D
:100B9000A3FF044600B328460EB0BDE8F0810C2048
:100BA0000EB0BDE8F081E1680C9731310DAB0CAAB5
:100BB00003200D970CF094FF0D990029AFD00E483B
:100BC00009A3D3E90023A1FB0001FFF789FA0C9DDB
:100BD00020F07F400544A2E702200DF06DF9204689
:100BE0000EB0BDE8F08100BF8D49FD1A070000007E
:100BF000002AE7842D9B000000CA9A3B098F000061
:100C00002DE9F04F0446808D4FF6FF7398428DB06A
:100C10000E46154600F0898094F8E93094F8E80013
:100C200083420ED0C01A00F0030002281BD094F8B3
:100C3000292194F828319A4230D100200DB0BDE826
:100C4000F08F94F8527117F00108F0D194F8051163
:100C500094F804218A4200F07383981E012284F8DC
:100C6000E90084F8EA2094F8983194F899219A429E
:100C700006D094F89A2102F00601042900F0A98315
:100C800094F8EA707B1E052B00F24C83DFE813F02A
:100C90007000E3028A024A030D03C701304803F0E3
:100CA000DDFC58B394F8283184F829310379022205
:100CB00043F0030342710371C271D4F8B03194F868
:100CC0002A2102722BB394F85221910721D494F86F
:100CD000AB21D2071DD4D4F8BC21934204BF1A68BB
:100CE000C4F8BC21D4F8B421B2B91A680260186003
:100CF0000368C4E96D000BB9C4F8C001B4F8CC00B6
:100D000000289AD1B4F8C630012B1CD9A4F8CC30F5
:100D100093E7D4F8B421E2B1D4F8B8311A6802608C
:100D20001860C4F8B8010368E5E70E4A0E490F4899
:100D30004FF4427312F0DEFF404080F311884FF011
:100D4000030002DF68E70133A4F8CC300DB0BDE842
:100D5000F08F0360C4E96C00C4F8B801CBE700BFB2
:100D6000D01600200C570100745801005C5201009D
:100D7000DFF82484D8F80030002B00F0BB84E78E25
:100D8000628E94F8063117442F4413F00303BFB268
:100D900040F07E83B4F8EC90A7EB09021FFA82FAC8
:100DA00012043FF544AF94F8701194F8712194F84F
:100DB000040184F805018A4294F8E80084F8E90007
:100DC00009D094F8722102F00702052A04BF84F8C2
:100DD0007111A4F8CC30D8F800309C4204BF002335
:100DE000C8F80030D4F80081B8F1000F00F09F85FA
:100DF000D8F80000002800F09A85B4F80811E38DB7
:100E00004268B4F80AC1C4F80021994200F0B486DF
:100E1000B4F80CE1A38DA8F806300A220023A8F844
:100E20002210A8F824C0A8F826E088F8042088F842
:100E30002030414607F0F2FF07F0FAFF2368002B4D
:100E400009DAD4E9011223F000438A422CBFB61814
:100E500076182360F61AE38DB4F8088113FB0AF3C1
:100E60009BB2B3FBF8F118FB01F292B293421FFA66
:100E700081FB80F04A85D31ABD4840F2E24202FB72
:100E800003F3A3FB0001B8A3D3E90023FFF728F97C
:100E900020F07F400644638EA9EB07071D4494F9B8
:100EA0003D305F442F4440F2E249002B678609FB46
:100EB00008F5C0F2AD86D4F81001AD49AAA3D3E974
:100EC0000023A0FB0101FFF70BF920F07F4909F196
:100ED0000109AA46B4F80C21B4F80A11A54BA4F8EC
:100EE0002E8042F2107000FB0252A34821862B4450
:100EF0002844B3FBF5F3013AB2FBF5F2B0FBF5F58C
:100F0000A4F8C62098B28A1D9042A4F8D200A4F892
:100F1000CA5002DD401A063880B294F80631A4F8AF
:100F2000CE005F0744BF0023A4F8C830022101208F
:100F300010F082FD002202218046012003F032FCE5
:100F40008E494FF4E472204603F0BEFB451DEDB21E
:100F50008B4B00942A460121002004F0C3FE30F0A0
:100F600002030CD0874A8849884840F6641312F07F
:100F7000C1FE404080F311884FF0030002DF7C4B3C
:100F8000AAFB03AB504678A3D3E900235946FFF7E9
:100F9000A7F87F4A20F07F47A7FB02230721BAEB7F
:100FA000020001FB07336BEB03014FF47A7200235D
:100FB000FFF796F8DFF8E4E17649E268DFF8E0C190
:100FC000034694F93D00049211EA200138BF7146AE
:100FD0000020029305913346019708940694CDF8BA
:100FE00000902A46CDF81CC00390012104F00EFEAB
:100FF00030F002030CD0634A6349644840F67E1324
:1010000012F078FE404080F311884FF0030002DFB9
:10101000B8F1000F40F0CC856FF047000EE6628E0D
:10102000E38E94F8EC1013441D44C807ADB20A4691
:1010300000F1D482B4F8EE30ED1A28043FF5F7AD94
:1010400094F8643094F8658094F8E800B4F862701D
:1010500084F8E90011F01C0F03F0070908F00708F5
:1010600040F0AF85B4F8606011F0E00F08D094F85C
:1010700065004B0963F3020084F865004FF4A47720
:1010800094F8AC3194F86410D4F80051C3F3C00361
:1010900063F3C30184F86410002D00F0A78528686D
:1010A000002800F0A3854368C4F8003112F0020F55
:1010B00094F8642040F08D8794F8653002F00702C0
:1010C000914503F0070300F0B087A18DE9804FF050
:1010D0000E0C002185F8201085F8212085F822309B
:1010E00085F804C0294607F099FED4F80051002D78
:1010F00000F09E862868002800F09A86B4F86030D8
:101100004268C4F80021B3420AD3B3F5A47F07D8DC
:10111000B4F86230BB4203D3B3F5A47F40F29987A1
:10112000A4F86060A4F8627095F82030A28DEA807F
:1011300043F0030302210922297185F8203085F844
:101140002120B4F85E30B4F85C20AB8415232A85E6
:1011500085F823302946EF846E8507F05FFE07F09F
:1011600067FE64E5AFF300808D49FD1A07000000BB
:1011700000CA9A3B7FC3C901FF596202FC130020D9
:1011800021A200000C570100EC5701005C52010045
:101190008D49FD1AD5D10000C415002049D30000A7
:1011A000C9A1000094F8EC3013F003057FF43FADC3
:1011B000B34803F053FA064600283FF438AD94F9DB
:1011C0003D30002B80F2788594F8ED50002D00F032
:1011D0004783037994F8DC2043F003030371D007BD
:1011E00040F10387D4F81C31590740F1FE861122E3
:1011F00003237572F27133727771D4F8B031002223
:1012000084F8ED20002B00F0758394F852219207AA
:1012100000F1708394F8AB21D70700F16B83D4F809
:10122000BC21934204BF1A68C4F8BC21D4F8B4218D
:10123000002A01F07580D4F8B8311A6832601E6057
:10124000C4F8B8613368002B00F0CB8694F8E8301E
:1012500084F8E930EBE4E38E618E94F8EC200B44E3
:101260001D44D607ADB200F11382B4F8F230ED1A86
:101270002D043FF5DCAC94F8E83084F8E93004F153
:101280003805052204F1ED01284613F046F82846FA
:10129000052103F0ADFB94F83D30012260F3050316
:1012A00084F83D3084F8C421C1E4754803F0D6F9D0
:1012B00000283FF4BCAC94F8E83084F8E93001230E
:1012C00002794371D4F8B03142F003021221027165
:1012D000C171002B00F0B98294F85221960700F1F9
:1012E000B48294F8AB21D50700F1AF82D4F8BC21C9
:1012F000934204BF1A68C4F8BC21D4F8B421002A70
:1013000000F0FC87D4F8B8311A6802601860C4F89D
:10131000B8010368002B00F09B85B4F8CA30A4F82C
:10132000CC3084E4574A5849584840F28E3312F082
:10133000E1FC404080F311884FF0030002DF76E4C7
:1013400094F8192194F818C1624559D194F82121D3
:1013500094F820C1624500F0FB82A2EB0C02D70793
:101360007FF565AC94F82231D80740F128879F07B4
:1013700040F1208707F080FD0146002879D094F8DD
:10138000203184F8213190F82030A28DC28043F0C2
:10139000030381F82030022006220C23087181F813
:1013A000212081F8233094F82301B4F82631B4F8D1
:1013B0002421A1F8252081F82400A1F8273008680D
:1013C00007F02CFD07F034FD94F8E80094F8E930BC
:1013D00028E402F00701062901F21C8101A050F85F
:1013E00021F000BFA1170000810C0000810C00005B
:1013F000810C0000FD160000FD160000810C0000AD
:10140000A2EB0C02D0077FF512AC94F8DC1011F0BF
:10141000010700F0988407F02FFD074648B394F8C1
:10142000183184F8193190F82030A28DC28043F031
:10143000030309220220414687F82030387187F8DB
:10144000212087F8232007F12400082212F090FFC2
:10145000D4F81C3187F82430C3F307221B0C87F81B
:10146000252087F826303946086807F0D7FC07F0B2
:10147000DFFC94F8E80094F8E930FFF7D3BB00BF35
:10148000D01600200C570100DC5201005C52010014
:10149000012007F0D3FC804600283FF4C8ABBA48CF
:1014A00003F0DCF8054600283FF4C1AB07F0E4FC8C
:1014B000D8F80030D4F800215A6094F80631C4F806
:1014C000008103F00303012B00F0E085022B00F004
:1014D0009D85AE4AAE49AF4840F68F0312F00AFC34
:1014E000404080F311884FF0030002DF0021238E7B
:1014F00094F806C12A793B44063398B26FF3010C85
:101500000C23A4F8EC0084F806C142F003026B71CE
:10151000D4F81031A04F2A710022EA71A7FB0323EF
:1015200094F8147122682F72B4F80871A5F80B7042
:10153000B4F80A71A5F80D70C3F38F23B4F80C71D9
:10154000A5F80F70002AA5F81100A5F80930C4F815
:10155000F4600ADAD4E9010322F0004283422CBF8E
:10156000F31833189A1AC4F8F4208C4B05F10900CB
:101570000122C4F8F000D960104602219C6003F0FB
:1015800045F9002840F08585D4F8B031002B00F0F3
:10159000228394F85221900700F11D8394F8AB2127
:1015A000D10700F11883D4F8BC21934204BF1A6814
:1015B000C4F8BC21D4F8B421002A00F0C186D4F8C4
:1015C000B8311A682A601D60C4F8B8512B68002B26
:1015D0007FF42DABC4F8C051FFF729BB022007F000
:1015E0002DFC804600283FF422AB674803F036F814
:1015F000064600283FF41BAB94F8EC306FF3000371
:10160000C3F3421242EA930212F0070784F8EC3067
:10161000DBB240F0A28594F8E820A4F8EE709B07B6
:1016200084F8E92000F119863B463946052272719B
:10163000377232797372D4F8B031718142F003029B
:1016400018213271F171002B4AD094F8522197077A
:1016500046D494F8AB21D50742D4D4F8BC219342A8
:1016600004BF1A68C4F8BC21D4F8B421002A00F0E1
:101670005F86D4F8B8311A6832601E60C4F8B86169
:101680003368002B7FF4D3AAC4F8C061FFF7CFBA48
:101690003D4802F0E3FF064600283FF4C8AA238E27
:1016A000027994F8EC101D44AB1DA4F8F2306FF3EE
:1016B0000001012342F00302082084F8EC1032718B
:1016C0007071F371052204F1ED01301812F025FE5E
:1016D000D4F8B031B4F8F220A6F80D20002BB4D124
:1016E000D4F8B421002AC4D13360C4E96C66C4F8CC
:1016F000B861C6E7C8F80040FFF741BB02F0070237
:10170000B4F89CC1B4F8A011B4F89E91B4F8A281C9
:10171000A4F85EC0042AA4F8621000F0138594F8BF
:101720009A31062262F3020384F89A31D4F80071E8
:10173000002F00F097843868002800F0938497F811
:1017400020304268B4F82CE0C4F8002143F00303D1
:10175000022287F820304FF0090A1523A7F806E087
:10176000A7F824C0F9843A7187F823303946A7F8DE
:101770002890A7F82A8087F821A007F04FFB07F0F0
:1017800057FBFFF77DBA00BFD01600200C570100B1
:10179000DC5201005C5201005917B7D14C03002004
:1017A000B74802F05BFF00283FF46AAA94F89A3128
:1017B000B4F89E71B4F8A221A4F8D6700121A4F85F
:1017C000D82061F30203092284F89A314271027928
:1017D000D4F8B031878142F003024FF0140CC1728B
:1017E000C173002702711B21482280F807C047728D
:1017F000017282728273002B00F0FD8394F85221F3
:10180000920700F1F88394F8AB21D70700F1F38336
:10181000D4F8BC21934204BF1A68C4F8BC21D4F8A0
:10182000B421002A00F09F85D4F8B8311A6802600C
:101830001860C4F8B8010368002B00F00A85B4F8FA
:10184000CA30A4F8CC30FFF71BBAD4F8B421002A70
:101850007FF458AD0360C4E96C00C4F8B80159E5E1
:1018600004F17F073B462A4604F1EE0104F25D10C5
:101870000FF03AFC3946102204F1A00012F04DFDA1
:10188000082204F1980104F1B90012F046FD94F821
:10189000972094F8B81094F87E3084F88F5042F076
:1018A000010265F3000143F00803012084F897204A
:1018B00084F8B81084F87E3084F8905084F8915001
:1018C00084F8925084F8935084F8945084F895509A
:1018D00084F89650C4F8B050C4F8B450327970719E
:1018E000D4F8B03142F0030205213271F171002BBE
:1018F0007FF48BACD4F8B421002A7FF49CAC336025
:10190000C4E96C66C4F8B8619DE408FB113340F289
:10191000E2425C489BB202FB03F3A3FB000156A327
:10192000D3E90023FEF7DCFB361AFFF7B4BA564AB8
:10193000564957484FF40C6312F0DCF9404080F3ED
:1019400011884FF0030002DFD8F80000FFF755BA06
:1019500094F871C194F87021944500F07D82DFF80D
:101960003481D8F80020002A00F09D8494427FF44E
:101970005EA994F8722102F00702052A00F2378668
:101980000FF2040C5CF822F0991A0000F91900001B
:10199000A1190000250C0000250C0000250C0000FA
:1019A000B8073FF544A907F067FA014600283FF45D
:1019B00060AD90F8203094F87221032060F30202A9
:1019C000034384F87221A08D81F820300227182368
:1019D0000F7181F82130B4F87421B4F87631C880E1
:1019E000B4F878018A84B4F87A21CB840F2308856F
:1019F0004A8581F8233037E594F87371002F40F061
:101A0000DD8494F93D30002BC0F25A8594F8723190
:101A100094F87C01C4F81071052262F302030122DC
:101A200084F8723184F81421002800F0A385B4F8FA
:101A30007431B3FBF0F3134413FB00F39BB294F83F
:101A4000722194F80601A4F80831C2F3C0039B0088
:101A500020F0070243F002031343B4F87801B4F80E
:101A60007A2184F80631013984F80511A4F80A01B5
:101A7000A4F80C21FFF7DBB88D49FD1A0700000020
:101A8000D016002000CA9A3B0C5701009058010064
:101A90005C520100C4150020DB48B4F83690B4F85D
:101AA00032A002F0DBFD074600283FF4E2AC0279E9
:101AB00094F87211042060F3020142F0030218202E
:101AC00084F8721109EB0A033A717871B4F8740161
:101AD000B4F87611B4F8782138812B44B4F87A013F
:101AE0007981BA810F210022A7F811304FF0FF331E
:101AF000F881F9713A74FA743A757B75BB75FB75A8
:101B00003B767B76BB76FB763B777B77BB7739463C
:101B1000204608F019FA2268B4F8CA30C8F8004024
:101B2000002AC4F89061A4F8CC300ADAD4E9011391
:101B300022F000428B422CBFF31873189B1AC4F892
:101B40009031B24B13370122C4F88C711046022138
:101B50009C6002F05BFE00283FF48BACAC4AAD49C0
:101B600040F67633AC4812F0C5F8404080F3118857
:101B70004FF0030002DF7CE4238E63457FF448A925
:101B800040F2E243B4F80CE1B4F8C62003FB01FBD9
:101B900042F2107303FB0EB3013BB3FBFBF39BB2AA
:101BA0009A427FF437A9032388F80430FFF741B93C
:101BB00001221046022102F0F5FD6FF04700FFF709
:101BC0003DB8C1F3820060F3020384F864304FF43F
:101BD000A476FFF749BAD4F8B421002A7FF4EFAC19
:101BE0002B60C4E96C55C4F8B851F0E4884A8B49BD
:101BF000894840F6386312F07DF8404080F3118840
:101C00004FF0030002DF286894F8EC20FFF74BBA8E
:101C1000E26C636C824F03FB1A23E3640EF036FC24
:101C2000804694F8DC00C0F382000EF031FC08EB33
:101C3000000305FB03F37B48E26C94F8141103F5F1
:101C4000742303F23F23A0FB03034FEA934A0AFBEA
:101C50000BF06B080244963B9A4209FB01FC28BF3B
:101C60001A464FF0000EC4E91232C4F844A064A32F
:101C7000D3E90023C4F854C0C4F8E4E0A0FB070192
:101C8000FEF72EFAD4F8103184466748A0FB0330E3
:101C9000800A09FB00F05AA3D3E90023A0FB070147
:101CA000A6EB0C06FEF71CFAA5EB0A0AB4F80881AD
:101CB00020F07F49FFF70EB904F17F073B462A4623
:101CC00004F1EE0104F25D100FF00EFA3946102215
:101CD00004F1A00012F021FB082204F1980104F1A4
:101CE000B90012F01AFB94F8971094F8B82094F801
:101CF0007E3084F88F5043F0080365F3000142F012
:101D0000010284F8971084F87E3084F8905084F8AB
:101D1000915084F8925084F8935084F8945084F849
:101D2000955084F89650C4F8B050C4F8B45084F874
:101D3000B820311D204608F011FBD4F8B031002B3B
:101D40007FF463AAD6E5304802F088FC804600287C
:101D50003FF48FAB94F81931344AC4F81C21013B8D
:101D6000092284F81931427194F93D200379002A3F
:101D7000ACBF08220E2243F00303C2710822037194
:101D80003946104412F0F4FAD4F81C3188F80830BF
:101D9000C3F307221B0C88F8092088F80A30D4F80E
:101DA000B031002B00F0358194F85221910700F1F9
:101DB000308194F8AB21D20700F12B81D4F8BC21FB
:101DC000934204BF1A68C4F8BC21D4F8B421002A95
:101DD00000F0E082D4F8B8311A68C8F80020C3F8DF
:101DE0000080C4F8B881D8F80030002B00F072826F
:101DF000B4F8CA30A4F8CC30FFF73BBBAFF3008097
:101E00008D49FD1A07000000D01600205C03002059
:101E10000C570100F85401005C5201009058010079
:101E200000CA9A3B83DE1B435917B7D1FF4101001B
:101E3000D94ADA49DA4840F6646311F05BFF404062
:101E400080F311884FF0030002DF2868FFF756B9CE
:101E5000C4F8C001FFF761BA94F8987194F8992119
:101E6000BA4200F0258194F89A1101F00702062A7F
:101E700000F2DF830FF2040C5CF822F02D1F00004B
:101E8000250C0000250C0000250C0000991E000008
:101E9000991E0000250C0000B4F89C31A4F85E30B7
:101EA00001F00703B4F8A021B4F89E91B4F8A28120
:101EB000A4F86220042B00F077820B46062262F31E
:101EC000020384F89A31D4F80071002F00F0538295
:101ED0003868002800F04F8297F820304268B4F844
:101EE0002CC0C4F8002143F0030387F820300222FD
:101EF000092387F821303A71B4F85E10B4F86220F3
:101F0000FA84152387F82330A7F806C0B984A7F808
:101F100028903946A7F82A8006F080FF06F088FF4F
:101F200094F8E80094F8E930FEF77CBE9D4802F092
:101F300095FB034600283FF49CAA94F89A21B4F834
:101F40009E71B4F8A211A4F8D6700120A4F8D8109C
:101F500060F30202092184F89A2159711979D4F8A1
:101F6000B0219F8141F003014FF0140CD872D87357
:101F7000002719711B20482183F807C05F7218726F
:101F800099729973002A00F0E38194F8521189073D
:101F900000F1DE8194F8AB11CF0700F1D981D4F8BC
:101FA000BC118A4204BF1168C4F8BC11D4F8B41142
:101FB000002900F00F83D4F8B8211168196013606C
:101FC000C4F8B8311A68002A7FF412AFC4F8C031DF
:101FD0000EE794F8653002F0070203F00703FFF7FD
:101FE00074B8C4F8C061FFF731B90D233572F371CD
:101FF0000227FFF701B9D4F8B421002A7FF414AC0A
:102000000360C4E96C00C4F8B80115E46649FFF741
:102010006EBAD4F8B421002A7FF4DCAEC8F80030E0
:10202000C4E96C88C4F8B881DFE698457FF44DA810
:1020300003232B71294606F0F1FED4F80051002D40
:1020400000F025822868002800F021824368C4F847
:10205000003103232B71294606F0E0FE06F0E8FE6E
:10206000FEF7E5BD4C4A4D494D4840F6085311F086
:1020700041FE404080F311884FF0030002DF3868D2
:10208000B4F85EC0B4F86210FFF759BB4749FFF7D8
:102090002EBA414A4649424840F6490311F02AFE09
:1020A000404080F311884FF0030002DFFFF76CBA65
:1020B00094F8A82194F8A91191423EF4B8AD94F88F
:1020C000AA1101F00300032800F09D8100287EF48E
:1020D000AEAD344802F0C2FA014600283FF4C9A967
:1020E00094F8AA3194F8AC2194F8AB71012060F314
:1020F0000103C3F3820060F30202C3F3421060F3F2
:102100000612C7F34007087984F8AA3167F3C302BF
:1021100084F8AC21C3F3820C40F00300C3F34213F4
:10212000162203274B720871CA7181F808C04F71DB
:102130000022204607F008FFB4F8CA30A4F8CC30DB
:10214000FFF797B9B4F8A421002A40F0C68084F8BC
:102150009931A4F8CC20FFF7E9BA238E1D44AB1DBA
:10216000A4F8EE3006F088FED8F80030D4F800214C
:102170005A60C4F8008106F07FFE0368D4F800219D
:102180005A6094F8EC30B4F8EE10C4F80001C3F3D0
:1021900082075B09FFF74ABA0C570100905801000B
:1021A0005C520100D0160020F5DA0000F1DA0000E0
:1021B000F854010040F62733BC4ABD49D2E4BD487B
:1021C00002F04CFA00283FF454A994F8212194F825
:1021D0002231013A84F82121027943F001030621DA
:1021E00084F8223142F003024171D4F8B031027117
:1021F0000B216FF00E020C270172427205214FF085
:10220000FF32C7718172C2720273002B7ED094F8C4
:10221000522191077AD494F8AB21D20776D4D4F81E
:10222000BC21934204BF1A68C4F8BC21D4F8B4217D
:10223000002A00F0C981D4F8B8311A680260186029
:10224000C4F8B8010368002B7FF4D2ADC4F8C00114
:10225000CEE5C4F8C001FFF7F2BA06F00DFE0E237A
:10226000A28D88F8207088F8043094F86430D8F88B
:102270000000A8F80620C3F3020388F8213094F880
:102280006530C3F3020388F82230414606F0C6FDEC
:1022900006F0CEFD94F8EC30B4F8EE10C3F38207EC
:1022A0005B09FFF7C3B994F8723103F00703052BFC
:1022B00000F29D8101A252F823F000BF991A00009C
:1022C000F9190000A11900002F0C00002F0C0000CC
:1022D0002F0C0000C4F8C0818AE594F89A01B4F884
:1022E000A671A4F89E21002363F3020084F89A01EA
:1022F000A4F8A431A4F8A271FFF718BA1A68026012
:1023000018600368C4E96D00FFF704B8D4F8B4217D
:10231000002A90D10360C4E96C00C4F8B80191E7C9
:102320001A6832601E603368C4E96D66FEF78BBFC1
:102330001A6832601E603368C4E96D66FFF7A1B9A0
:102340001A682A601D602B68C4E96D55FFF73FB914
:10235000D4F8B41100297FF42EAE1A60C4E96C33AE
:10236000C4F8B8312EE61A68026018600368C4E940
:102370006D00FFF761BA4D4A4F49504840F6085387
:1023800011F0B8FC404080F311884FF0030002DFE9
:102390003868A1E51A68C8F80020C3F80080D8F8AA
:1023A0000030C4E96D8820E5B4F8A421002A40F08B
:1023B000D28084F89971A4F8CC2084E53D4802F0DD
:1023C0004DF9014600283FF454A8037943F0030374
:1023D0000B71112003220F23C8714A710B7294F8FC
:1023E00073314B722046002207F0AEFD94F8703135
:1023F00084F871310023C8F8003094F8E80094F8AC
:10240000E930FEF70FBC080784F8A921C1F3820266
:1024100040F1BC8094F8AA21022161F3840284F87F
:10242000AA2194F8AA2157064FEA521140F1A6803A
:10243000022161F3471284F8AA2194F8AA1194F8B2
:1024400064C094F8650094F8AB21C1F382070CF0E6
:10245000070C00F00700C2F38002BC4508BF00274C
:102460005200B0EB511F42F001024FEA511108BF78
:10247000002142EA4112023B42EA8702062184F827
:10248000E93084F8EC2084F8EA10FEF7F9BB074A3B
:1024900009490A4840F6476311F02CFC404080F39C
:1024A00011884FF0030002DF2868CFE50C570100C8
:1024B000DC520100D0160020905801005C5201004F
:1024C0005D4802F0CBF80B90014600283EF4D1AFF6
:1024D0000379182243F0030303714271B4F87421A5
:1024E000B4F87631B4F878010A81B4F87A214B81D6
:1024F00010238881CA81CB7194F87C310B74B4F8B5
:102500007E31B4F88001B4F88221A1F81130B4F81A
:102510008431A1F81300B4F88601A1F81520B4F8AD
:102520008821A1F81730B4F88A31A1F81D30A1F83C
:102530001900A1F81B2020463A4607F005FD94F843
:10254000703184F8713194F8E80094F8E930C8F8F3
:102550000070FEF767BB00200B4660F30203A4F88F
:102560009E21B4F8A62184F89A31A4F8A401A4F815
:10257000A221A8E4B4F87631FFF761BAC8070FD5F5
:10258000012161F3471284F8AA2156E7D10710D53B
:1025900094F8AA21012161F3840284F8AA2140E77A
:1025A00011F0040118BF042161F3471284F8AA2135
:1025B00043E712F0040213D094F8AA21042161F336
:1025C000840284F8AA212CE71A6802601860C4E922
:1025D0006D0037E6116819601360C4E96D33F1E4EA
:1025E00094F8AA1162F3840184F8AA1119E7134A36
:1025F0001349144840F6344311F07CFB404080F30B
:1026000011884FF0030002DF94F8E80094F8E930F5
:10261000FEF708BB094A0A490A484FF4536311F010
:1026200069FB404080F311884FF0030002DFFEF7A2
:1026300027BB4FF45363BFE5D01600200C570100B1
:10264000DC5201005C5201002DE9F04F16461A469B
:10265000376852F80C5B93B0894600211C46B9607C
:1026600003F1080A09F132013B680A9380461046DB
:10267000032211F052FE04F11C0709F12E0104227D
:10268000504611F04AFE052209F13E01384611F08C
:1026900044FE3846052102F0ABF994F8212000F001
:1026A0003F0060F30502012884F821200AD999F837
:1026B000432002F01F010539C2F304000B2984F8FE
:1026C000220002D913B0BDE8F08FB9F838706782E4
:1026D00099F83BC099F83A1095F8DC0041EA0C21D2
:1026E0005209A18262F38400B9F8363085F8DC0023
:1026F000ADF830300DF0CAFE024695F8DC000B92C2
:10270000C0F382000DF0C4FE0B9AC94B99F835C096
:10271000A18A40F2E24BBFB20BFB07F7104407FB64
:1027200000F000F5742000F23F20A3FB00304FEAD8
:10273000570EAEF19603800C0BFB0CFBA062C4F8A5
:102740003CB0E362B9F83C30BA4AADF836301846CE
:1027500042F2107E80B20EFB0070B74B3A4401F19A
:10276000060E0138B2FBF7F2B0FBF7F0A5F8C60091
:1027700090B270453B44A5F8D200B3FBF7FCA5F836
:10278000CAC002DD401A063880B25146A5F8CE0014
:10279000042205F1E00011F0C0FD99F820C009F114
:1027A000220BCCF380135946062210A88DF83C303A
:1027B00011F0B3FD99F820200A9B4FF48071A9F81D
:1027C000201093F82A0096F816A0C2F340138DF853
:1027D00038300B930CF08AF806220146002840F0AE
:1027E000F28009F12F0011F0C3FDBAF1FF0F00F0E4
:1027F000F4805946504609F123020BF0ABFA99F8E0
:102800002220023289F8222010A9062209F129008B
:1028100011F083FD95F8DC20608AA18ABDF836307E
:10282000A9F83A30C2F38202A9F8360089F83C20B0
:10283000A9F83810284607F0D3FE49462082A9F8A7
:1028400006004046D6F8048006F0E8FA238AA8F885
:1028500006300D2388F804300B9BD8F80000002BBD
:1028600000F0CC8094F809E0237A94F80BC0A17AA8
:1028700094F8212041EA0C2143EA0E234B4042F018
:1028800040020121638484F8212088F82010414609
:1028900006F0C4FA06F0CCFAD6F81080674A4FF07A
:1028A000000B312308F25240A0FB02012B60C5E966
:1028B00001BB5DA3D3E90023FDF712FCF368BDF86B
:1028C0003020A46AA3F5AE7A20F07F4040F2E241C6
:1028D000AAEB080CE86001FB021A01205A4602210B
:1028E000E2443F1B01F05EFF0A9C204607F0D8F847
:1028F000821C534B0094D2B25846012103F0F2F9E6
:10290000012800F088800A9B93F82830DB077AD4EE
:10291000284607F065FEDFF824B1A7FB0B8942A328
:10292000D3E90023044649464046FDF7D9FB454A12
:10293000069520F07F47A7FB0223072101FB073301
:1029400040F22111B66808913F4907913F4905912E
:10295000B8EB020069EB0301EB68049300254FF428
:102960007A7200230395FDF7BBFB2FA3D3E9002365
:102970008446AAFB0B01CDE9017CFDF7B1FB0534D0
:1029800020F07F40E4B2313E334600902246284694
:10299000012103F03BF930F002030CD02C4A2D4901
:1029A0002D484FF4917311F0A5F9404080F3118840
:1029B0004FF0030002DF01221046022101F0F2FE77
:1029C00013B0BDE8F08F09F1280109F12F0011F0D3
:1029D000A4FCBAF1FF0F7FF40CAF0622002109F12D
:1029E000290011F0C5FC9DF83C3089F8223010A96F
:1029F000062209F1230011F090FC0BE79DF8383016
:102A000088F8203043E7002301220093184611463E
:102A100003F068F97CE706F0A3FA0A9B83423FF4CF
:102A200072AF0AF0B3FB6EE78D49FD1A0700000094
:102A300083DE1B437FC3C901FF59620200CA9A3B70
:102A4000B9D100008D49FD1A5DD10000D5D100003B
:102A500030590100EC5701005C52010000000000F9
:102A60002DE9F041D0E90CC7D0F82C800CEB07041D
:102A70003034A0450E46154618D81B4F18A3D3E98D
:102A80000023ACFB0701FDF72BFBA4EB080420F0AF
:102A90007F40306012A3D3E90023A4FB0701FDF7B8
:102AA0001FFB20F07F402860BDE8F0810E4C0CA396
:102AB000D3E90023A8FB0401FDF712FB20F07F43BC
:102AC00007F130003360A0FB040105A3D3E9002324
:102AD000FDF706FB20F07F402860BDE8F08100BFD5
:102AE0008D49FD1A0700000000CA9A3B0000000053
:102AF0002DE9F04F91F82070164612688FB00C4601
:102B00004FF0000B1D46C2F808B0C7F3C013D2F84F
:102B100000A08DF82C302831062281460CA82F68A1
:102B200011F0FBFB94F82080A4F820B0717D96F89A
:102B300016B0C8F3401311F001018DF82830984603
:102B40004FF0060200F0EA8004F1220104F12F00A8
:102B500011F0E3FBBBF1FF0F00F0E880584604F1F1
:102B6000230204F122010BF0F5F894F8223002332D
:102B70000CA984F82230062204F1290011F0CDFBC3
:102B80006B8AAA8AE386BAF83030638722870DF011
:102B90007BFC84F83C00384607F022FD034628827F
:102BA0002146E3804846746806F038F92B8AE380B2
:102BB0000D2320682371B8F1000F00F0AA8095F86A
:102BC00009E02B7A95F80BC0A97A95F8212041EA03
:102BD0000C2143EA0E234B4042F0400201216B845A
:102BE00085F8212084F82010214606F017F906F018
:102BF0001FF9D6F81090DFF878B1002409F252409E
:102C000031233B60C7E9014451A3D3E90023A0FB72
:102C10000B01FDF765FAB5F812C0F36820F07F40AC
:102C2000F86022460221012040F2E24808FB0CF83D
:102C3000A3F5877501F0B6FD504607F0B9F8021DFF
:102C4000D2B2454B00920121204603F04BF82346B7
:102C5000032201210094204603F044F8384607F08F
:102C6000BFFC06974FF41973D6F808C03B4A089387
:102C70003B4B07920593FB680493A5EB090588FB82
:102C80000B89461D32A3D3E9002340464946ACF1E7
:102C900031070394FDF724FA104619464FF47A726F
:102CA0000023FDF71DFA2AA3D3E9002384464946F1
:102CB0004046CDF808C0FDF713FA25A3D3E9002359
:102CC0008446A5FB0B01CDF804C0FDF709FAF6B266
:102CD00020F07F403B46009032462046012102F022
:102CE00095FF30F002030CD01E4A1F491F4840F2E6
:102CF000652310F0FFFF404080F311884FF0030080
:102D000002DF01221046022101F04CFD0FB0BDE8A8
:102D1000F08F9DF8283084F8203065E704F12F000B
:102D200011F026FBBBF1FF0F7FF418AF0622002144
:102D300004F1290011F01CFB9DF82C3084F822309E
:102D40000CA9062204F1230011F0E7FA18E700BFEE
:102D50008D49FD1A0700000015D3000019D30000AB
:102D600049D30000A4590100EC5701005C52010056
:102D700000CA9A3B000000002DE9F04F83B00446E2
:102D80000EF058FB10F0FF0F12D10EF03DFB0EF0CD
:102D90000FFC0EF0F5FB0EF00FFE0EF0B9FBCA486B
:102DA00021460EF037FA03B0BDE8F04F0EF014BB29
:102DB0000EF060FB5FFA80F80EF0EAFBC6B20EF090
:102DC000F1FB07460EF004FEC5B20EF0EFFD8246A1
:102DD0000EF0A6FB81460EF017FB0EF0E9FB0EF09D
:102DE000CFFB0EF0E9FD0EF093FB002E40F0AB8020
:102DF000002D40F0BA80FF27B8F1000FCFD0A37D9F
:102E0000190700F1A880002E40F0EB81012006F0A8
:102E100009F98046002800F0FB81A3685FFA89F673
:102E2000002B00F0D580A37D1A0740F1E68198F8C9
:102E3000200010F00F0340F09E8098F82130252BE1
:102E400000F21681042006F0EDF80028A7D00EF05D
:102E5000E1FCA36A814643B9E28C40F2712303FB93
:102E600002F3B0FBF3F203FB120923689748DB6817
:102E70000722A3FB000102FB031191A3D3E9002366
:102E8000FDF72EF9A0F242334B4588D30EF022FB1A
:102E9000D4F808B00EF0FCFA98F820300278C3F3AA
:102EA0008013DB0102F0500243F02503134322227A
:102EB00003704270824638460BF026FDE37D009099
:102EC000DA07014640F12882002800F025829AF8AE
:102ED0000030504643F0400300F8023B062211F058
:102EE0001CFA062208F122010AF1080011F015FA75
:102EF00004220BF108010AF10E0011F00EFA032270
:102F00000BF10C010AF1120011F007FA01238AF803
:102F10001530BBF8123001930EF07CFCD4F8109001
:102F200000F5DB63B9F1000F00F00682019940F271
:102F3000E24202FB01F2B9F1000F02DB4B4540F225
:102F4000C7809144F7E7A07DF9B2C0F3C0000BF051
:102F5000F9FC074650E7002E7FF458AF38460BF0D7
:102F6000ADFD00287FF452AF19E75FFA8AF00BF04D
:102F700053FD074640E7012B4ED198F821300C2B2A
:102F80007FF40DAF08F12809C00949463A460BF015
:102F900043FE00287FF456AFE37DDB0700F1F881A4
:102FA000A37D98F82000C3F38012B2EBD01F00F08D
:102FB0001C82C3F3C10398070AD598F92030002B6F
:102FC00006DA98F82D3003F0C003402B3FF43AAFF7
:102FD00098F8200010F00F031ED198F82130252B0F
:102FE0003FF6DDAE94F91620002AC0F22581252B8C
:102FF00098BF4FF000093BD8002B3FF4D0AEA36838
:10300000002B7FF4CCAE002D14BF3946FF214A4679
:1030100030460DF01DF9C2E6062B00F00781022BA9
:1030200000F06081012B23D198F821300C2B7FF424
:10303000B6AE08F1280AC00951463A460BF0ECFD3D
:103040008146002840F09F81A37D98F82000C3F3BB
:103050008012B2EBD01F00F0AE81C3F3C10398071A
:1030600004D598F92030002BC0F2998198F82000FF
:1030700000F00F0004287FF492AE98F82130252B41
:103080003FF68DAEA37DDA077FF589AE0EF000FA2C
:1030900098F820300278C3F38013B3EBD21F7FF48B
:1030A0007EAE0830062208F1220111F026F9814691
:1030B00000287FF474AE98F821309DE7AFF30080CC
:1030C00000CA9A3B000000004DFF00008D49FD1A28
:1030D000CB499AF81520A9EB0303A1FB0313C3F313
:1030E0008F230132AAF816308AF81520BBF8121087
:1030F000BBF81420A38AAAF81C30AAF81810AAF862
:103100001A200BF11C0105220AF11E0011F005F92D
:103110009BF822209AF8233062F304038AF82330C4
:103120000DF0B2F99AF8233060F347138AF8233090
:1031300050460EF02FF90EF073F9002840F015817B
:10314000B04821460EF066F8002E40F00981237940
:1031500043F00102DB07227100F1F48005F080FFEB
:103160000823064603714FF6FF73242298F8208047
:10317000C3805146203011F0D0F896F82030B4606A
:10318000C8F3401868F3451386F820300EF0E6FACD
:103190000021306108460EF009F90021A9EB00007A
:1031A000706108460EF0FCF8002D08BFFF27B777C6
:1031B000E37DB06113F0010303D0009B003B18BF17
:1031C0000123727F63F30002727705F049FF3146F5
:1031D000F060306805F05CFF03B0BDE8F04F05F02B
:1031E00067BF394628460BF0A5FC00287FF40EAED9
:1031F000A37D1B077FF5D3AD08E6FF2F75D0237E97
:10320000DB1BB3FA83F35B09002B7FF410AEDFE620
:103210007D4A7E497E4840F2AA2310F06BFD404073
:1032200080F311884FF0030002DFF6E598F82130B3
:10323000252B7FF6D7AE1BE7A268002A7FF4D7AE16
:1032400096200EF0C5F900200EF02AF9002D14BFCB
:103250003946FF21304600220CF0FAFF00287FF4A7
:103260009EAD0EF015F998F820300278C3F3801364
:10327000DB01054602F0700243F0030313430C2206
:103280002B7038466A700BF03FFBE37DDE0701468A
:1032900040F19C80002800F099802B78284643F06C
:1032A000400300F8023B062211F037F808F1220132
:1032B000062205F1080011F030F828460EF06AF8F1
:1032C0000EF0AEF8002840F0AB800EF09BFAA37D24
:1032D000504843F001032146A37503B0BDE8F04F09
:1032E0000DF098BF98F8213081E698F82000C3F3DC
:1032F0004013C0F3801293427FF46CAE062208F1B3
:10330000220104F11F0010F0F8FFB0FA80F35B090E
:10331000002B7FF48CAD5BE6A37D9AF80020C3F30D
:103320008013504663F3861200F8022B04F1190152
:10333000062210F0F2FFD4E58AF816908AF817906A
:103340009946D3E6304A3449314840F2493310F0C7
:10335000D1FC404080F311884FF0030002DFFDE60E
:103360000EF0D0F88BF8A500F1E6274A2B49284843
:1033700040F2233310F0BEFC404080F311884FF040
:10338000030002DFDCE698F821304FF0000933E655
:1033900038460BF0B9FA00287FF41AAE00E698F828
:1033A0002D3003F0C003402B7FF460AE98F821303D
:1033B0004FF0010920E65146062204F1190010F0F1
:1033C0009CFF00283FF477AEA37D46E6A37D2A78D4
:1033D000C3F38013284663F3861200F8022B04F12E
:1033E0001901062210F099FF60E74946062204F110
:1033F000190010F082FF00283FF424ADA37DD8E52A
:103400005917B7D18D0101007C5D0100C85D010035
:103410005C52010061FF0000D05401004C5D0100CE
:10342000064A0749074840F2A53310F063FC4040C4
:1034300080F311884FF0030002DF46E77C5D010056
:103440004C5D01005C52010038B5094D4FF0FF3270
:103450004FF0FF33284611F00EF8044601F0BCF897
:1034600010B120460EF062FD10F068F8EEE700BFE4
:10347000B804002010B51148114C0FF077FC206003
:10348000B8B18368DB6A03B19847206883681B6A18
:1034900003B198472268936823B19B6C13B1094923
:1034A00010469847206883689B6A2BB19847002094
:1034B00010BD6FF01500FBE71846F9E7DC6001006E
:1034C0007C050020C93400002DE9F0414B4E4C4CE6
:1034D0008CB03746306883685B6C83B1984770B1B5
:1034E000306883681B6C53B1984740B1306883687B
:1034F0005B6B3BB9386883685B6A002B33D10CB0D7
:10350000BDE8F08198470028F4D02368002B4AD109
:103510000DF10B0530680122294610F0C1FB01288E
:10352000D8D1CDE9005000220023042000F0F8FF9C
:10353000DFF8D4800546C8F800000028DFD0037DFE
:103540009BB1022BDBD104231A4603A9386810F083
:10355000A7FB042203A905F1080010F0BDFFBDF888
:103560000E30236010E09847C9E703231A4603A9E9
:10357000386810F095FB9DF80E302360032203A9F4
:1035800005F1080010F0A8FFD8F80000083010F08E
:10359000CDFF2368984206D2D8F800000EF0C6FC92
:1035A0000023C8F80030DFF860803868D8F80030B1
:1035B000226863B983689B692BB1212A28BF212225
:1035C00003A9984703462068C31A236082E79D68D1
:1035D00099890023294410F063FBD8F8001025686E
:1035E0008B892D1A03448B812560002D7FF472AFE7
:1035F000044810F05EFFC8F800506BE77C0500201F
:1036000080050020B8040020780500202DE9F04155
:10361000194888B000F0E6FF00220023CDE9062318
:1036200000236FF00802CDE90323CDE901330093B5
:103630001249134B1348104F134E4FF4806210F091
:103640007FF84FF0FF324FF0FF33384610F013FF92
:10365000044600F10808A3891BB920460EF066FC59
:10366000EFE74046356810F059FF0146AB68284641
:103670005B689847EFE700BFA00400207820002097
:1036800049340000840500207C0500200B680133CC
:103690000B60014B1B681847100000202DE9F04F0C
:1036A00085B09B460E9CDFF89090012CB8BF01249A
:1036B000012B0CBF30232023154606468A46029371
:1036C00001274FF00A080022B5FBF9F301930AB96C
:1036D000A9451FD8019B514603F13000B04701377F
:1036E0000122019B08F1FF38B8F1010F09FB1355C6
:1036F0004FF00A03B9FBF3F9E6D1514605F130006A
:10370000B047BBF1030F02D1E41B002C0EDC05B067
:10371000BDE8F08F4445E4DBBBF1020FE1D802982D
:1037200003925146B0470137039ADAE75146202009
:10373000B047013CE9E700BF00CA9A3B014B186063
:10374000704700BF100000202DE9F04F8DB01C46DF
:103750000027531E05468B4603934FF0FF39B846AA
:10376000002605E06EB9252800F071815946A8476A
:10377000039B13F8010F03930028F3D10DB0BDE8AC
:10378000F08F7A280AD8622810D8302854D045D82B
:10379000252800F05A812D2800F05F815946252008
:1037A000A847039B18785946A847D9E7A0F16303B7
:1037B000172BF3D801A252F823F000BF433A0000C0
:1037C000873800009D3700009D3700009D370000BE
:1037D00069380000873800009D3700009D370000E1
:1037E000693800009D3700009D3700009D370000BC
:1037F000293900009D3700009D370000133A000072
:103800009D370000F73800009D3700009D3700000D
:10381000253800009D3700006938000039281AD982
:103820005828BBD1039B1B78702B40F0888054F83C
:10383000043B0693002290E0B9F1000F0EDAB8F1D4
:10384000000F00F00D81A0F13009B8F1000F08BFA2
:103850004FF002088CE7B9F1000FF4DB0A2303FBF9
:103860000909A9F13009F0E7682803D1682F06D1CA
:1038700048277DE76C2802D16C2F00F0F480002FE0
:103880008CD1074674E77A2F02D154F8046B21E0FB
:103890006C2FFAD04C2FF8D1073424F00704F4E849
:1038A0000223CDE90423049B13F10041059B0891F9
:1038B00043F100010991DDE9082300214FF0FF30B9
:1038C000994208BF904204D25946284610F004FAA3
:1038D00046E7049E002E05DA59462D20A847764279
:1038E00009F1FF39CDF80090434632465946284643
:1038F000FFF7D4FE34E77A2F02D154F8042B0FE0FF
:103900006C2FFAD04C2FF8D1073424F00704F4E8D8
:10391000022300214FF0FF30994208BF9042D3D3D9
:10392000CDF800904346E1E759463020A847594674
:103930007820A8474FF008094FF0010872E76C2F74
:103940003FF475AF4C2F7FF472AFE31D23F00703F4
:103950001C4654F8082B06925A6800211023049143
:1039600007914FF0400AAAF1040A0699CAF1200E05
:10397000AAF1200C21FA0AF002FA0EFE40EA0E002B
:1039800022FA0CFC40EA0C0010F00F0007D1079956
:1039900011B9BAF1000F25D14FF0300C05E009281C
:1039A0008CBF4FF0570C4FF0300C6044594640B27A
:1039B0000A920793A847049B0A9A01330493079B32
:1039C000BAF1000F23D1B8F1030F7FF4C9AE049B05
:1039D000C3EB4906002E7FF7C3AE59462020A84707
:1039E000013EF7E7591E99450A9107DBB8F1010F2F
:1039F00006D10B9259463020A8470B9A0A9BB2E792
:103A0000B8F1020FFAD10B9259462020F4E707963D
:103A1000A9E754F8046BB24653461AF8010B68B98B
:103A2000B8F1030F21D19E1BA9EB0606002E7FF7EC
:103A300097AE59462020A847013EF7E75946A847C8
:103A4000EAE754F8040B5946AEE65946ACE6374669
:103A5000B0464FF0FF3901268AE64FF0030887E6AB
:103A60004FF0010884E64C2782E6064680E600BF58
:103A700007B50B46002102460191034801A9FFF753
:103A800063FE03B05DF804FB8D36000010B50748F7
:103A9000074C0FF06BF9074B1860204600F0DAFC7A
:103AA0002046FFF74BFE002010BD00BFDC60010088
:103AB000B93A0000F80500200A2838B5074D044639
:103AC00004D1286883680D215B689847286883685B
:103AD000E1B25B689847204638BD00BFF80500207A
:103AE000F8B5124EF3680C2404FB0034012305469C
:103AF00063724FF02003EFF3118183F31188BFF35A
:103B00006F8F23682BB160681A682260834208BFF8
:103B1000626081F31188BFF36F8F03B9F8BDD3E9F9
:103B2000017229463046B847E3E700BF140400207D
:103B30002DE9F8434668D0F80CE00C46CFB24AB104
:103B40000C237B435EF803309A425ED013B11B68AE
:103B5000002BF9D14FF02003EFF3118C83F3118880
:103B6000BFF36F8F0C2179430EEB01031D7A0135F2
:103B7000EDB21D728CF31188BFF36F8F62B34FF0FB
:103B8000804C4FF00308CCF8088393F809C0BCF1CF
:103B9000000F15D14FF02008EFF3118988F3118839
:103BA000BFF36F8FC2F800C0D3F80480B8F1000FE4
:103BB00027D15A604EF8012089F31188BFF36F8F27
:103BC0004FF080430321C3F80413BCF1000F03D06E
:103BD000D2E9013221469847012D10D1012C07D19D
:103BE0000C4D2B7823B94FF4A57010F0E7FF2C7023
:103BF00006EB87060122B37803F180431A600020A8
:103C000005E0C8F800205A60D6E76FF00F00BDE865
:103C1000F88300BF64200020154B07B51A6882B1F5
:103C20004FF08042D2F80423D1070AD500221A604F
:103C30001B680093009B0F4BDB68587A08B9FFF7AD
:103C40004FFF0D4B1A6882B14FF08042D2F8042327
:103C500092070AD500221A601B680193019B01207C
:103C600003B05DF804EBFFF73BBF03B05DF804FB66
:103C7000000100401404002004010040821C084B95
:103C800022F07F42C3F84025D3F80425904200D1AA
:103C90007047D3F80405821C22F07F42F2E700BF90
:103CA00000100140044B002282B01A601B6801938F
:103CB000019B02B0704700BF4011014008B5FFF7FB
:103CC000F1FF074B074AD3F840051368C01A20F0EC
:103CD0007F4003441360BDE808400FF0D9BE00BF29
:103CE000001001401406002038B514480FF03EF8CB
:103CF00000B38368124D1B68012100249847C5F862
:103D00000845FFF7CFFF0F4B4FF40032C3F8802177
:103D10004FF48033C5F8043322460121112000F00E
:103D2000D9F8112000F0A4F8074A012313602046B7
:103D30002B6038BD4FF0FF30FBE700BFF1600100A2
:103D40000010014000E100E00810014070B52A4B6E
:103D50002A4C1968D4F80425294D521AB0F1FF3FB6
:103D600008BF284622F07F43120234D4013820EAEB
:103D7000E070A842A8BF284601334FF480361844AB
:103D8000C4F80863A84294BF0D184D19D4F804056F
:103D9000D4F84015FFF786FF091A21F07F4120F083
:103DA0007F430129C4F84035C4F8446304D10F208F
:103DB00010F004FFFFF776FF124B4FF40032C3F808
:103DC0008021D4F804052B1A23F07F43012B04D162
:103DD000FFF754FF0BE00020CEE725F07F43C4F847
:103DE0004035D4F804052D1A023D2B02F0D44FF4CF
:103DF0008033C4F8043370BD140600200010014065
:103E0000FFFF7F0000E100E04FF02002EFF311839D
:103E100082F31188BFF36F8F064AD2F80405064A71
:103E20001268801A20F07F4083F31188BFF36F8FF0
:103E3000704700BF0010014014060020094A0A49DB
:103E40009368096819670949D8664B6843F080533D
:103E50004B60002383F31188BFF36F8F9368186F53
:103E6000704700BF901F0020D060010000ED00E00F
:103E700043B2002B08DB012200F01F0002FA00F021
:103E80005B09024A42F82300704700BF00E100E0EE
:103E900043B2002B0DDB01225B0900F01F0002FA88
:103EA00000F02033034A42F82300BFF34F8FBFF3E3
:103EB0006F8F704700E100E0054B420900F01F00E2
:103EC00053F82220012303FA00F01040704700BF8E
:103ED00000E100E043B2002BA8BF03F1604301F111
:103EE0000101B8BF064B4FEA4111ACBF03F5614376
:103EF00000F00F00C9B2B4BF195483F80013704723
:103F000014ED00E008B572B6044B186A18B100222F
:103F10001A6210F0F4FB62B608BD00BF901F0020CB
:103F2000C0E918120A44203A22F007020849136037
:103F3000009B5360019B9360029BD3604FF08073A2
:103F4000D36121F00101002391610265C3667047CE
:103F50000F3D0100F8B506460C4617461D4600F019
:103F6000CDF9094B3C4424F007049E60284684F3B5
:103F70000988002163B681F31188BFF36F8F002297
:103F800000230FF0C4FE00BF901F00200E4A08B5AA
:103F90000E4B22F07F029A60BFF34F8FBFF36F8FFB
:103FA000D3F8882022F47002C3F88820EFF314833A
:103FB00023F0040383F314880EF016FF0EF01EFFA7
:103FC00000F06AF90EF058FF0000000000ED00E07C
:103FD0000F498A684FF030001044EFF3098C80E8F5
:103FE000F01F202080F31188BFF36F8F094F4FF02F
:103FF00000664A6A8A603E60D06E0023D36680F312
:10400000118802F1300090E8F01F8CF309887047A6
:10401000901F002004ED00E01EF0040F0CBFEFF332
:104020000880EFF30980816911F8021C0229FFD092
:1040300001B510F04BF901BD014910220A6070472B
:1040400010ED00E072B6404080F31188BFF36F8F2F
:10405000BFF34F8F30BF62B6BFF36F8F704700BFA3
:1040600030BFFFF7FDBF00BF01B572B60B4A106A43
:1040700000281EBF0021116210F041FB62B6EFF371
:104080000580A0F110004FEAC0000549014409C9AC
:104090009847BDE80140034908470000901F0020F1
:1040A00060500100ED40000010F088F9202080F3FE
:1040B000118808484FF40061401880F30988EFF335
:1040C00014800221084380F31488BFF36F8FFFF739
:1040D0005DFF0000782D0020EFF30880EFF30981E9
:1040E000724601B500F05CF801BD00BF044B996851
:1040F000586A884203D003494FF080520A607047E3
:10410000901F002004ED00E00C4B9A6A9A6A9A6AAC
:10411000920708D55A6B9A6A120604D518B19A6AA2
:1041200022F080029A62054B9A6A9A6A9A6A9A6A9F
:10413000002042F0FF029A620870704700ED00E034
:104140000D4B9A6A9A6A9A6A920508D59A6B9A6A8E
:10415000120404D518B19A6A22F400429A62064BFE
:104160009A6A9A6AD20558BF9A6A9A6A002042F4FB
:104170007F429A620870704700ED00E0074B9A6A30
:104180009A6A9A6A9A6A9A6A9A6A9A6A6FEA02427A
:104190006FEA12429A620020704700BF00ED00E013
:1041A00070B5364B5B688AB00E46C3F30803002532
:1041B00085F31188BFF36F8F02F07F41B1F17F4F1C
:1041C00011D102F00C0108290DD0110701D40646C7
:1041D00001250022033B8DF80720032B47D8DFE899
:1041E00003F0043E423B2E46F3E7244BDA6A920783
:1041F0003DD4DC6A14F0804408D028331B78EBB13E
:104200000DF107010120FFF77FFF04469DF80730FD
:1042100093B92022314602A810F07FF8099B45B3DC
:10422000C3F3080222B96FEA53236FEA43230993C9
:1042300002A9204610F048F80AB070BD104B1B7858
:104240002BB10DF107010120FFF77AFFDDE70D4BE0
:10425000188884B2002CD9D0FFF790FFD5E70DF174
:1042600007010020CFE70DF107010020ECE7002453
:10427000CCE723F4FF7323F00103D8E700ED00E05F
:1042800029ED00E02AED00E0024A536943F01003F3
:104290005361704700ED00E0044800232021C2185C
:1042A0000133272B82F80013F9D1704700E100E0B9
:1042B00038B504464FF02003EFF3118583F31188DE
:1042C000BFF36F8F0FF050F80A4B9B68A3420BD1DE
:1042D000094B5A68C2F3080212B92846FFF7AEFD2F
:1042E0005A6842F080525A602846BDE8384010F0C3
:1042F0005FBB00BF901F002000ED00E01FB5084B22
:104300000193084B0293084B039301AB0093074AB8
:10431000074B0121684600F093F805B05DF804FBF7
:10432000000000200000000000000B06000000203C
:1043300000000120DFF884C0F0B5064600271046D3
:104340008F4200DBF0BD56F827E0DEF8044094B35E
:1043500043B1651E2C4219D11F2C17D9DEF800205D
:10436000154213D1202CC2B2DEF80050DEF808004E
:104370000FD9B4F1004F0ED8013CB4FA84F4C4F163
:104380001F046400072A44EA000406D96FF01500F0
:10439000D8E70824F6E73E24F4E725F01F05154387
:1043A00045F0100544F00104CCF80820501CCCF86E
:1043B0000C50CCF810400137C2E700BF90ED00E090
:1043C000034B05225A60BFF34F8FBFF36F8F7047C7
:1043D00090ED00E0BFF35F8F014B00225A60704701
:1043E00090ED00E013490868082810B51ED8FFF7C3
:1043F000F1FF114C49680022904201F10C0105D1F6
:104400000E4B1870FFF7DCFF002010BDA26051F8C2
:104410000C3C23F01F03134343F01003E36051F8F7
:10442000043C43F0010323610132E5E74FF0FF3024
:10443000EBE700BFCC51010090ED00E065200020CB
:1044400010B5034C01232278FFF774FF207010BDD4
:1044500065200020014B1860704700BF1400002049
:104460004FF02003EFF3118283F31188BFF36F8FB6
:1044700006490123C1F840354FF08041C1F8783535
:1044800082F31188BFF36F8F0020704700E0014076
:104490004FF08043C0B2C3F81C05BFF34F8F0549EE
:1044A000054BCA6802F4E0621343CB60BFF34F8F41
:1044B00000BFFDE700ED00E00400FA0520B1034B6A
:1044C000800143F001031847704700BFB05101005D
:1044D000074A0346106828B9D96831B1196921B172
:1044E000136070476FF0440070476FF0150070471D
:1044F0001806002070B500F0FD06012E05460BD110
:1045000006480FF0B3FF044620B1314608300FF0E3
:10451000CCFF2575204670BD0024FBE73805002040
:104520002DE9F0410228DDE90667044629D0042878
:1045300002D040B300251EE0144909780129F9D1C1
:104540003478012C1AD0022CF4D111480136013FE5
:104550000FF08CFF05460028ECD000F1080801217F
:1045600040460FF0A2FF2C752EB127B13A463146D6
:1045700040460FF0B1FF2846BDE8F0810548002411
:10458000E4E70348E4E70348E2E700BF1004002043
:10459000E80400201005002010B50D4B1B78012BFE
:1045A00004460CD1037D012B04D0032B0ED06FF0F9
:1045B000150010BD042104F108000FF096FF054B13
:1045C000214618680FF075FF0020F2E70221F2E79C
:1045D000100400201C060020014B1B681B691847B3
:1045E00018060020044B054A1B6810600BB1DB68FD
:1045F00018476FF012007047180600201C060020B4
:104600002DE9F0411446C21D22F00302671EBFB21D
:10461000186082B005460E4601FB07001480002199
:1046200004220FF0A5FEB7B1023CA4B204FB06635E
:1046300004FB06F71D44FF1A4FF6FF780422013CE5
:10464000E8190DEB0201A4B201950FF066FE444596
:10465000A5EB0605F2D102B0BDE8F08170B50568A2
:1046600082B095B1EB1D23F00303042204462946D2
:104670000DEB02001E880FF050FE019B23B1DA1DE6
:1046800022F00302013E16802360284602B070BD6E
:104690000B6870B50C46054683B1073323F003035E
:1046A0001E880136B6B20422214628460FF035FE98
:1046B000EB1D23F003031E80256070BD0126F2E789
:1046C00002FB0100704700BF401A80B2B0FBF2F05D
:1046D000704700BF531E11449BB242B1DB43CA185E
:1046E000013811F8013D00F8013F9142F9D17047BE
:1046F000014402E010F8013B1BB98842FAD10020C6
:1047000070470120704700BF10600860704700BF0D
:104710000A6803460068904205BF00220A60002034
:104720001A60704710B4146820601468616010BC8F
:1047300010607047884203D01AB143681360704715
:10474000002070470B68834209D02AB15868106076
:104750001A680A6018467047002BF9D1FAE700235F
:10476000F8E700BF2DE9F041DFF834800B4E0C274D
:1047700006F130044546221D214628460C3CFFF731
:10478000C3FFB442A5F10805F5D1043F3B1DA8F1D4
:104790002008A4F13006EBD1BDE8F0812807002005
:1047A0009806002030B403460C469AB101EB410153
:1047B0000801144D03EB430100EB81012944487AC1
:1047C0000D7AA84204BF013008722146184630BC59
:1047D0000DF012B901EB41020A4D120100EB40034A
:1047E00002EB83032B449D7ADA7AAA4201D030BCD3
:1047F0007047054D01329A7201236B5430BC0DF0A5
:1048000059B900BFA4060020A006002070B51C46C0
:1048100006460D4622B363782278D21A12F00302BC
:1048200005D0012A40D00133DBB223700FE03022E3
:10483000042112FB05110C2212FB061201331B4945
:104840006068DBB20A4423702146FFF76BFF184B08
:104850003046012229465A550DF02CF9002070BD32
:104860000DF00AF90028D6D0294630460DF0E4F8BC
:104870000028D0D005EB45031A010C4906EB46038E
:1048800002EB83030B449A7ADB7A9A42C3D16378B2
:104890002278D21A920702D00233DBB22370D4E915
:1048A00002039847002070BD104670BDA40600208A
:1048B000A00600204C490B5C002B00F094802DE9F1
:1048C000F04F4A4B4FF03C0B87B000220BFB003BF4
:1048D0000A5400EB40070BF10401039203EB0717A6
:1048E00001924FF00309884602900023D7E909019D
:1048F00005AA0593FFF71EFF07F12406834688B338
:10490000059C25786378ED1A05F00305012D06D185
:10491000013B6370D4E902039847059C63782078D3
:10492000C31A03F00303012B4FF0000231465FFA74
:1049300080FA0DD0B86AFFF705FF62782378C4F8D3
:1049400004B09B1A03F00303012B84F801A043D0A9
:10495000D7E9090105AAFFF7EDFE012D834629D00D
:104960000028CDD197F82E3097F82F209A4203D007
:1049700087F82F300123019397F82C3097F82D20DA
:104980009A4203D087F82D300123039309F1FF39B0
:104990005FFA89F9B9F1FF0FA7F10C07A5D1DDE99D
:1049A000013AB3B1039BA3B91A46514650460DF0E4
:1049B00023F80EE0B9F1000F01D10028D2D0DDF8C4
:1049C00008A0094A01235146504602F80A300DF06A
:1049D00071F807B0BDE8F08F627021465846424634
:1049E000FFF7A0FEB4E77047A0060020A406002051
:1049F000A1B14B1EDBB210B4411EC418002011F847
:104A0000013F3BB15BB25A1E1340013013F0FF036C
:104A1000C0B2F7D1A142F2D110BC7047084670472E
:104A20002DE9F04F827F89B001230492C377002AD9
:104A300040F0A580437FFF2B814600F09F800CF063
:104A40001BFBD9F8142099F81C3099F81DA0801A86
:104A5000FF2B20F07F4B00F0FC80D9F818305B452D
:104A600094BF002301230293BAF1FF0FD9F800800D
:104A700000F0F2800025CDF80C900AEB4A0A08EB12
:104A80000A144FEA0A1AA3685B4552D8A66918F8B7
:104A90000AA0ABEB030B1D44002E77D0029B002B2A
:104AA0007AD0E38B0193A36A5BB11A6832B11A7AA8
:104AB00022B9A28B01998A4240F2C7804FF00002CE
:104AC0001A72019A94F82C10013292B2E2830029F2
:104AD0002CD0A18B914229D2002B00F0B4801A7AFD
:104AE000012A23D0012600225A601A72A278637824
:104AF0009B1ADBB2012B19D1E768013AA270AFB162
:104B0000039A63695069616AEB1A184420F07F4088
:104B10002369002E40F09380E28BB847A369E683B7
:104B2000002B029BE67018BF01230293BAF1FF0F1E
:104B3000A3D1DDF80C90294699F80B3099F80A209A
:104B40009A420AD10132D2B2022A1CBF1346049300
:104B5000049A89F80B2008BF002309EB8303D9F8D6
:104B60002440D960002289F81F204B4601220421ED
:104B70000320A44609B0BDE8F04F6047C27709B0F2
:104B8000BDE8F08FDDE905B5DDF81CA0A36A0BB127
:104B90000026A8E71E46A9E794F92D301F4680336A
:104BA000F4D0BAF1FF0FF1D0E38BA28B01939342C3
:104BB00028BF9B1A6268CDF81CA0394603FB02226D
:104BC000DF1BCDE905B553460020B6460D4692469B
:104BD000BB4603E018F80330FF2BD3D01BB203EB26
:104BE000430308EB03121B01976838448645C9D379
:104BF00091690029EED0B2F81EC0918B8C45E9D3A3
:104C0000566892F92D90ACEB010116B1F71B06FB2B
:104C10000176D778E278BA42A1EB09010AD319F1FB
:104C2000800F07D08B4501DAB24503D94D45D1D16C
:104C3000B245CFD2DDE905B5DDF81CA033E74FF66C
:104C4000FF72B84772E7012650E74FF001021A726F
:104C500037E7049B029307E7002319466CE700BF80
:104C6000C27F002A40F028862DE9F04F837AC17A6E
:104C70008FB083464069059099424FF001008BF850
:104C80001E0000F097800344DBB2022B08BF1346DE
:104C90000BEB83028BF80A30D368059A0293D31882
:104CA00023F07F43CBF8143001230D939BF8093098
:104CB0009BF81D200692DBF80020DBF80410079318
:104CC00004921A46013B0C91DBB2002A00F02383C8
:104CD00001EBC30800230893FF23019347467B6839
:104CE000079397F80380BB78BA460798994603EB79
:104CF000430203EB8202591C434500EB8205CBB211
:104D000000F088819AF80010994208BF00238AF8C1
:104D1000023010F82210042940F27A81072900F2AB
:104D200088806A78049C02EB420004EB00140001C6
:104D3000A7780A906078C01B10F0FF000FFA82FC81
:104D400077D0052965D0012837D19BF81DE0DBF825
:104D50000030BEF1FF0F17D00EEB4E00724503EB93
:104D6000001000F05281002601E0724570D0F0463C
:104D700090F800E0D0F80890BEF1FF0F0EEB4E0067
:104D80004E4403EB0010F0D100260529A66000F088
:104D9000278167709BF81C30934222D0EB6A002079
:104DA0002870A8620BB1296B98479AF803809AF88B
:104DB00002309AE70D92029278E704215B460122C5
:104DC000DBF824400846A0470C9A8AF80290574620
:104DD0000123BA420893A7F1080300F022811F467D
:104DE0007DE7FF2307298BF81C3040F0DB816868E2
:104DF000DBF81430C21A110200F1CB8122F07F439C
:104E0000029A1344DBF818209A4288BFCBF8183076
:104E1000C4E76E68002E96D1AE68002E93D1EE687E
:104E2000002E90D12E69002E8DD16E6936F07F460E
:104E300089D1EA6A002101202970A862002A3FF482
:104E400054AF296B90479AF803809AF802304CE7E8
:104E5000904517D008EB480803EB081C07788268D8
:104E60008CF80070FF2F06D007EB470703EB0717FE
:104E7000B8681044B86016440529A6600BD0A7781E
:104E80006A7886E70CEB4C0C03EB0C1C02788BF871
:104E90001D202978E2E7DBF8147003970CF0ECF89A
:104EA000029BA0EB070C2CF07F473B449E428046C0
:104EB00040F2A2806269F31A6668002E53D0A88A75
:104EC000002850D0013880B29E42E18BA88225D2C2
:104ED00006F101090B9211E000F1E87000F5D43001
:104EE00000F5A570CE46099A0139A3EB0E0389B2ED
:104EF000801A9E42E18360620ED2A88A884280F0C6
:104F0000B181D4E90820DFF8C8E20992AF4A8644AB
:104F10009645E1D8B646E6E70B9AA88A814221D2A7
:104F2000206A099006F1010E0B9207E06062B1461B
:104F3000A88A013189B281424B4411D2099A606A30
:104F4000DFF88C921044A14A81449145EED8A0F13B
:104F5000E870A0F5D430A0F5A5706062F146E7E7EF
:104F60000B9AE183A083D5E9010EA66A034472443B
:104F7000A360626136B1316821B1A0EB0E007060B0
:104F8000A36862691CF4000F21D13B4493421BD9F2
:104F90009B1A0022A3606261E968A3692A690B4435
:104FA000934288BF9B1AAA7D98BF0023A36102B1D8
:104FB000E270049B0A9A1946019B8B5463786A78C5
:104FC000019201336370E9E6D21A0023E2E7039904
:104FD000A1EB080727F07F479F4213D2DB1BD5E7E1
:104FE000DBF8147003970CF047F8029BA0EB070C5A
:104FF0002CF07F4780463B4461690B449A1B6261F9
:10500000002359E73A44D21ADFE7844600263DE7F9
:1050100099466CE60C9A5746BA42A7F108037FF40A
:10502000DEAE9BF81DA0069BB3EB0A0318BF01235D
:1050300007930D9B002B40F076819BF80920DBF84D
:105040000030DBF804100493531E0991DBB2002AF0
:1050500000F00C8101EBC3080D9B0393D8F80430DA
:1050600098F801400593019BFF2B58D0DDF804A070
:10507000049A0FFA8AF303EB43034FEA031C02EB93
:10508000031312F80C2001920022FF201870DBF8A5
:1050900000709BF81D1007EB0C068142B56818BF25
:1050A000029311D18DE0B5EB0C0506D1BEF81EE0E0
:1050B000B6F81E90F14500F2D28017F803C0BCF19B
:1050C000FF0F084671D0614601EB410C07EB0C1E47
:1050D0004FEA0C13DEF808C0AC45E4D9029BB5607A
:1050E000FF28317066D18BF81DA0FF2906D001EB97
:1050F000410107EB0117B9684D1BBD60997801317B
:105100005970002AAFD0D36A039911709162002BB5
:10511000A9D0116B00209847019BFF2BA6D198F8CE
:105120000230A3422ED0059E98F8002004EB4401E3
:1051300004EB8101013416F82100E4B2A24208BF59
:105140000024042806EB81021AD192F801A0049BE6
:105150000AEB4A0C03EB0C134FEA0C1C5D789878B1
:105160002D1A15F0FF0535D0039B06F82130D36AC0
:105170000121916208460BB1116B984798F80230F3
:10518000A342D1D1099A4245A8F108036CD09846B0
:1051900064E7029A1B1A23F07F439A428CBFD31A0A
:1051A00000232FE60BF068FF22E6029BB56086F82D
:1051B00000C0614600B200EB4000000107F800A00B
:1051C00093E707F80C108BF81DA097E7592B177F72
:1051D0005A2B17FF918ADBF814604FF6FF7081425B
:1051E00031D083F82C50506AD768986210691862E1
:1051F0005F60D2E9060957689861A7EB060E106A4E
:1052000099831EF4000FC3E9039091680CD12EF02E
:105210007F4E714481B1996003995962D9834FF0EF
:1052200001015D61D97030E7F61B26F07F46B1427F
:1052300005D9891B0029EED10D460021EBE7711A33
:105240000D460021E7E74FF0010183F82C10506A6A
:10525000D16898621069186259602946C9E7029BB3
:1052600065463CE70B9A59E69BF81DA0069B9A45BC
:1052700000F02C83089B002B00F04B8300239BF84D
:105280001DA08BF81E30BAF1FF0F00F0D483069BEF
:10529000FF2B00F0EA83DBF80030DFF888829E4FB6
:1052A0009E4E0AEB4A0203EB02130A25D3F808903C
:1052B0000BF0E2FEDBF81430DBF82820C41A24F0EF
:1052C0007F4403344C452CBF1B194B4423F07F44CF
:1052D0008246204690470BF0CFFEA0EB0A00A4EBDD
:1052E0000A0420F07F4024F07F440330A04205F1FF
:1052F000FF3540F2F682002DDAD140F671034246C6
:10530000394630460EF0F6FC404080F311884FF0ED
:10531000030002DFCCE70D9B002B00F0F082079B1F
:105320000893FF2301930BF0A7FEDBF800300393F3
:10533000059B9BF81DA0C01A20F07F43BAF1FF0F18
:10534000049300F0B080DDF808904FF000082EE0E4
:10535000DC8B003C18BF0124DBF818108A4224BF04
:105360004FF0FF328BF81C209D6934BF8A1A00224F
:10537000CBF8182035B15A789978521AD2B2022A4D
:1053800000F05B81996A00229A60039A12F80E205D
:105390008BF81D205C680CBB11B10A7A012A5ED023
:1053A0009A785A709BF81DA0BAF1FF0F7BD0039B2F
:1053B0000AEB4A0203EB02134FEA021E9A684A45BF
:1053C00000F2A382049993F82C00891AA9EB020930
:1053D000904404910028BBD10446BDE711B10A7A7C
:1053E000012A3CD0DA8B0B92002A40F037819A8B4D
:1053F0005D7809929446661C0A96D3E908710022EA
:105400000C93664604E0013EA446731C624412D02D
:10541000DFF814C1424B39448C449C45F3D8DDF885
:1054200028C0A1F1E871013EA1F5D431731CA1F5AA
:10543000A5716244ECD10C9B0A975962002800F0D8
:1054400011820B9909980144D9830AE0039A9C6060
:1054500012F80E208BF81D205A68002A9DD09D78E6
:105460004A46059CDBF81410586904EB0806741AC8
:10547000270200F1D68024F07F442244904280F03D
:10548000D980121A00209A60039A58611146019A35
:1054900001F80E2001355D70CDF804A09BF81DA029
:1054A000BAF1FF0F83D1DDE906019BF80920DBF893
:1054B00004300993504518BF0121531E0791DBB2F8
:1054C000002A00F02A81099A02EBC308D8F80430B8
:1054D00098F801400593019BFF2B67D0DDF804A0ED
:1054E000039A0FFA8AF303EB43034FEA031C02EB20
:1054F000031312F80C2001920022FF201870DBF831
:1055000000709BF81D1007EB0C068142B56818BFB0
:1055100004931DD1ECE000BF845201005C520100F5
:10552000592B177F1C5201005A2B17FFB5EB0C05A6
:1055300006D1BEF81EE0B6F81E90F14500F2A0803C
:1055400017F803C0BCF1FF0F084600F08D806146DC
:1055500001EB410C07EB0C1E4FEA0C13DEF808C000
:10556000AC45E3D9049BB560FF28317040F08180E1
:105570008BF81DA0FF2906D001EB410107EB0117B5
:10558000B9684D1BBD60997801315970002AA2D0CD
:105590004FF00001D36A117000219162002B9AD064
:1055A000116B00209847019BFF2B97D198F8023090
:1055B000A3422FD0059E98F8002004EB440104EB91
:1055C0008101013416F82100E4B2A24208BF002490
:1055D000042806EB81021BD192F801A0039B0AEB81
:1055E0004A0C03EB0C134FEA0C1C5D7898782D1ACB
:1055F00015F0FF0547D04FF0000306F82130D36ABD
:105600000121916208460BB1116B984798F802305E
:10561000A342D0D1099A4245A8F108037DD098460B
:1056200054E7891B21F07F41914214D2521A9042D3
:10563000FFF427AF801A002225E7996A002C7FF437
:10564000A2AE19B10A7A012A3FF400AF8BF81CA070
:10565000CBF8185097E60844801AECE74FF0000C9E
:105660009D78CDF824C0C6E6049BB56086F800C0DE
:10567000614600B200EB4000000107F800A079E7A6
:10568000049B65466FE7918ADBF814604FF6FF7064
:10569000814232D083F82C50506AD76898621069E2
:1056A00018625F60D2E9060957689861A7EB060E99
:1056B000106A99831EF4000FC3E9039091680CD11E
:1056C0002EF07F4E714481B1996000215962D983D7
:1056D0004FF001015D61D9700FE7F61B26F07F46A0
:1056E000B14216D9891B0029EED10D460021EBE706
:1056F00007F80C108BF81DA045E74FF0010183F867
:105700002C10506AD1689862106918625960294655
:10571000C8E7711A0D460021D6E79BF81DA0DBF8FB
:1057200000400022D146B9F1FF0FCA4611D00FFA4E
:105730008AF303EB430304EB03111B01886A10B1E6
:10574000057A012D14D014F803A0BAF1FF0FEED1A1
:10575000CA46002A3FF48AAD069B53457FF48AADC2
:10576000089B002B00F0758100238BF81E308AE522
:105770009BF81C30FF2B84464FD0DBF81800029BAF
:1057800083424AD2C01ADCE90053AB420F7839D2C7
:10579000FF2FA5EB030535D08E69B5424FF000030E
:1057A0003FD3CDE903179E4601963A461CE0D8F850
:1057B00008100B1F0429734409D9AB42019F28BF6D
:1057C0002B46BB4203D99B1B01D0834227D2D8F87A
:1057D0001800A25C08448E44AB1B0EEB0601FF2AA6
:1057E00001911CD08D421AD302EB420204EB021845
:1057F0001201D8F828100029D9D0097A0129D6D168
:10580000A25CEAE700238B60CB8B013BCB834FF09C
:10581000020301228CF8083085E70020B3E7DDE9B8
:1058200003178B603D464FF0FF0E00E005462AB29D
:1058300002EB420004EB00180001D8F808609E4219
:105840003BD29B1B8B60205CFF28AE46EED102EB67
:10585000420212018BF81D70A35C0B70B94604F86C
:1058600002A0D1E7049E96427FF6EBAD0A9F0D950C
:1058700004F1010C334605E02646324401309342E0
:1058800080B211D9824E834D39448E19AE42F3D87D
:105890006646A1F1E8713244A1F5D431013093425A
:1058A000A1F5A57180B2EDD8099CDDE90C35044461
:1058B000A0B209905962C4E57047F31ABEF1FF0F18
:1058C000C8F80830A0D00FFA8EF2C0E7089B002B72
:1058D00000F0A78000238BF81E30079B002B40F0C0
:1058E000C1809BF81F206AB1DBF824405B4601228F
:1058F00003210420A4460FB0BDE8F04F60470D9B84
:105900008BF81E300FB0BDE8F08FA2EB09029A6051
:10591000C9E59BF80930DBF804605C1EE4B2002B9B
:105920003FF4ACAC0123079306EBC4044FF000092D
:105930004FF0010A01966378E178666899420CD1CC
:105940005CE0012B56D0637822780133DBB29A42B7
:1059500008BF00239942637050D01BB203EB43028F
:1059600003EB820306EB830216F82330022B1BD0D5
:10597000032BE6D153789BF80810994211D9DBF834
:105980000010107903EB430301EB031383F82D00A0
:10599000C2F82890D36A13B1116B906A9847E178E6
:1059A000D1E7C2F828A0F5E7D2E901C19CF80030A0
:1059B000D2F80CE0DBF80050DBF81400FF2B02D02B
:1059C0000F68874226D09BF81D30086000210BE04D
:1059D00003EB430005EB00180001D8F81870AFB9CD
:1059E000D8F808802B5C4144FF2BF1D18CF80030B3
:1059F000CEF80010D36AC2F82890CCE7019AA242F0
:105A0000A4F108033FF466AF1C4694E7D8F80800F9
:105A10000144EBE703EB43031B01DEF80010EB5CF2
:105A2000E2E79BF80930DBF804605C1EE4B2002B6F
:105A30007FF47AAF4EE70BF0F9FA00287FF451AF0C
:105A4000CBF818000BF018FB9BF81F20CBF81400C4
:105A500049E79BF80930DBF804605C1EE4B28BB1C7
:105A6000079261E79BF81DA00DE40BF005FB0446CF
:105A70000BF0CCFA9BF81DA000287FF40CACCBF8FF
:105A8000144008E4089B8BF81E30FFF7FCBB00BFF6
:105A90005A2B17FF592B177FF0B4049F9DF8144021
:105AA000069E00283ED1DFF884C04D1E8CF80810F9
:105AB000CCF80020EDB249B105EB450502EB05112C
:105AC000914281F82D00A1F13001F9D15A1E8CF8D4
:105AD0000930CCF80470D2B27BB107EBC202566039
